:100000000C9491030C94C9030C94C9030C94C90378
:100010000C94C9030C94C9030C94C9030C94C90330
:100020000C94C9030C94C9030C94871A0C94C91935
:100030000C94BA210C94C9030C94C9030C94C90301
:100040000C94C9030C94C9030C94C9030C94C90300
:100050000C94C9030C946D210C94C9030C94C9032E
:100060000C94C9030C94C9030C94C9030C94C903E0
:100070000C94C9030C94C9030C94C9030C94C903D0
:100080000C94C9030C94C9030C94C9030C94C903C0
:100090000C94C9030C94C9030C94C9030C94C903B0
:1000A0000C94C9030C94C9030C94C903FC0870098F
:1000B0000409CE08D2080809D5080B091609E0087A
:1000C0006609E4081A09E8081E094809EC0822092B
:1000D0005209F20828093209D9080F09DC08120967
:1000E000F7082D093E095E096009CA080009790967
:1000F0009F09A50993099909AB09B109B7099E0A96
:100100009E0ACE0ACE0A7D0B9B0BCF0CCF0CA00B08
:10011000130C260C260C131329132F133C153C1516
:10012000651375138813CA13CF13F7131B145114D7
:10013000541460146A148214BA14CC14F2141415F2
:10014000D517FC17B119FC17B11948186B18B1195C
:100150006C197C19FD377A585A000004E6D6B4466B
:100160000200210116000000742FE5A3E0016500E4
:10017000895D003D8889A654750A36E182AEFA7A17
:100180001AA6FCA2ED4951391A5E7177BBD0558C85
:100190003BA832869F744EF98317003EA32C7C4EF9
:1001A000911C1B94136B8FE09575CF3AD57CEBD4E3
:1001B000DCF2408CF51689D09EE3538E249E646B4E
:1001C000E75B409A925340E4E566DDE6B2129DD6C5
:1001D000795E80094F98F3C81D41A70F8DBABF11F2
:1001E0002D53F7E17DA1C54A99B9C1AFB5616E8BB9
:1001F0008291456C7F8E13B0D75893130000000096
:10020000CF17BA3B9F3058FC0001A501E602000061
:10021000BAB77447B1C467FB020000000004595A22
:1002200005010902A10185020901A10005091901C1
:10023000290815002501950875018102050109307D
:1002400009311581257F95027508810609381581C8
:10025000257F950175088106050C0A380215812550
:100260007F950175088106C0C005010980A101853F
:100270000319012AB700150126B7009501751081F1
:1002800000C0050C0901A101850419012AA002156D
:100290000126A002950175108100C005010906A183
:1002A000018506050719E029E71500250195087560
:1002B0000181020507190029EF1500250195F07548
:1002C000018102050819012905950575019102951D
:1002D0000175039101C00660FF0961A10109621562
:1002E0000026FF009520750881020963150026FF8E
:1002F00000952075089102C005010906A1010507B6
:1003000019E029E71500250195087501810295017D
:10031000750881010507190029FF150026FF0095C2
:1003200006750881000508190129051500250195A4
:100330000575019102950175039101C009025B00E9
:10034000030100A0FA0904000001030101000921D2
:10035000110100012244000705810308000109047E
:100360000100020300000009211101000122220006
:10037000070582032000010705030320000109048B
:100380000200010300000009211101000122B60052
:10039000070584032000011201000200000008AFDD
:1003A000BE04000100010203011C03760069006124
:1003B000006C003A006600360034006300320062D0
:1003C0000033006300000014036D0069006E0069D3
:1003D00000700065006700340038000000120373ED
:1003E0000070006F007200650077006F0068000009
:1003F00000040309040000000000000000000000E9
:1004000000000000000000000000000000000000EC
:100410000000000000000000007E0F00D4FFFFFF7E
:10042000C70000007800000000000000002A2B2810
:1004300000000000000000000000000000000000BC
:1004400029000000002C1E342021222434262725D8
:100450002E362D3738271E1F202122232425263310
:1004600033362E37381F0405060708090A0B0C0D12
:100470000E0F101112131415161718191A1B1C1D24
:100480002F3130232D350405060708090A0B0C0D02
:100490000E0F101112131415161718191A1B1C1D04
:1004A0002F3130354C2B0014001A000800150017AE
:1004B000001C0018000C00120013002A0029000480
:1004C000001600070009000A000B000D000E000FC7
:1004D0000033003400E1001D001B00060019000578
:1004E00000110010003600370038002800E000E05E
:1004F00000E200E30021522C002C00225250005157
:100500000052004F0035021E021F0220022102226B
:1005100002230224022502260227022A004C003A66
:10052000003B003C003D003E003F002D022E022F0C
:100530000230023102010040004100420043004409
:10054000004500320264024A004D00010001000132
:1005500000010001000100010001000100AB00AA40
:1005600000A900AE0035001E001F0020002100225F
:1005700000230024002500260027002A004C003A12
:10058000003B003C003D003E003F002D002E002FB0
:1005900000300031000100400041004200430044AF
:1005A000004500320064004B004E000100010001D4
:1005B00000010001000100010001000100AB00AAE0
:1005C00000A900AE000100007C0100010001000153
:1005D00000010001000100010001004C00010001C8
:1005E0000001000100010001000100010001000103
:1005F00000010001000100010001000100010001F3
:1006000000010001000100010001000100010001E2
:1006100000010001000100010001000100010001D2
:100620000001000100010001004802522D852D004B
:1006300000020002004402522D852D00000300013B
:10064000004902522D852D0000040002002E0252A6
:100650002D852DC92C050001004A02522D852D0043
:1006600000060002003002522D852D000007000216
:10067000004602522D852D0000080001004B025259
:100680002D852D0000090002003202522D852DA477
:100690002C0A0002003402522D852DA42C0B0002DE
:1006A000003602522D852DA42C0C00020038025277
:1006B0002D852DA42C0D0002003A02522D852DA46B
:1006C0002C0E0002003C02522D852DA42C0F00029E
:1006D000003E02522D852DA42C1000020040025233
:1006E0002D852DA42C110002004202522D852DA42F
:1006F0002C120002004C02522D852D000013000226
:10070000004E02522D852D000014000100500252AF
:100710002D852D0000150000000000272CD22C0094
:10072000000011241FBECFEFDAE0DEBFCDBF04B65C
:1007300003FE18C08091270590912805A0912905F6
:10074000B0912A058730904BA740B04B59F41092D6
:100750002705109228051092290510922A05E0E03D
:10076000F8E3099511E0A0E0B1E0EAEBFAE602C097
:1007700005900D92A637B107D9F725E0A6E7B1E0BD
:1007800001C01D92A732B207E1F70E94370D0C9409
:100790005B350C940000ACE0B0E0E1EDF3E00C94CC
:1007A0000735DC0114962C91222311F40C94330D9F
:1007B0007C0161E00E949A318C01F70185818823D8
:1007C00019F180911F03909120030097E9F0081719
:1007D0001907D1F09927E4E0880F991FEA95E1F70E
:1007E000FC01EF52FC4F20812460208384539C4FF6
:1007F000DC010D931C930E94B62210921E0361E04F
:10080000C7010E949A318C01F7013580332009F429
:10081000C2C0C80197578038910508F008C1D02E92
:10082000FFE0F01710F40C94240D8FEF93E00E947A
:10083000783481110C94240D0DE713E0DD2079F05C
:10084000011524E0120711F40C94240DC8010E9434
:100850007834811101C0DA940F5F1F4FEFCF1982F6
:100860001A821B821C82AA24AA9468013FEFC31A31
:10087000D30AC8010E94783489831A82882311F42C
:100880000C94240D813009F081C0480142E0840EAF
:10089000911CC6010E947834B82E8A83882311F4F3
:1008A0000C94240D8FEF8B0D833060F4680153E0BE
:1008B000C50ED11CC4010E9478348B83811166C09F
:1008C0008601D3CF8BEF8B0D833078F5380183E031
:1008D000680E711CC4010E9478348B83811102C0A0
:1008E0006301EECF680194E0C90ED11CC3010E94E0
:1008F00078348C83882321F32B813C812130AFEF26
:100900003A0718F0922F80E001C0C901B6E0BB168B
:1009100031F0E7E0BE1631F00E94A62FD1CF0E9441
:10092000812FCECF0E94072FCBCFF4E0BF1611F05E
:100930006401C6CFC4010E947834B82E680124E057
:10094000C20ED11CC80103960E947834BB2011F45A
:100950000C94240D882311F40C94240D282F30E0DE
:1009600021503109A29EA001A39E500D11248B2D70
:1009700090E00197840F951F019708F4A1CFAFE98C
:10098000BFE01197F1F700C00000F6CFCE0101964D
:100990000E94461695CF6801E7E5DE1AFFEFCF16F5
:1009A000D10411F008F05FC062EC73E08C2D0E945E
:1009B0003F24892BB9F5C60174E0880F991F7A95F9
:1009C000E1F7FC01E453FC4F22812130C9F420916E
:1009D000C2033091C303232B29F12091C40330912A
:1009E000C503232BF9F02091C6033091C703232BB5
:1009F000C9F42091C8033091C903232B49F012C0D8
:100A0000223081F42091C6033091C703232B51F08B
:100A1000FC01EF52FC4F20812E7F208384539C4F9A
:100A20000E94B622D70115963C903320E9F00E358E
:100A3000BCE71B0761F00F35ECE71E0769F00D35C9
:100A4000FCE71F0789F480910001811105C081E056
:100A5000809300010C94240D1092000180E00E940C
:100A6000A0230C94240D312C80910001811108C029
:100A7000C80197558F3F910509F008F47AC1E7C185
:100A8000480120EE821A91082090A50380917F03EF
:100A9000282A80910D02282A38E08316910480F4D8
:100AA00098012770332781E090E001C0880F2A95D4
:100AB000EAF7332011F0282A18C08095282215C0A3
:100AC000332009F416C110937901009378010E9434
:100AD000A2216093100370931103809312039093EB
:100AE00013031092180310921703D7018D919C9154
:100AF0000E94CD1B21E030E0F90102C0EE0FFF1F84
:100B00008A95E2F7FC87EB872091190330911A034D
:100B100038872F8340917801509179015A8749870E
:100B20001D82432C512C5D81E52FF0E0EE0FFF1F5D
:100B3000E356FB4FC080D180C114D10409F4F0C04A
:100B4000211005C0D60112968C918111CEC0F601FC
:100B5000838190E02B853C8582239323892B09F4A4
:100B6000C4C08085982F977009F487E038E0831619
:100B7000910440F4332019F081FD09C0B6C082FD14
:100B800006C0B3C0332009F4B0C080FFAEC0D601A8
:100B9000AD90BC900A151B0519F4332009F4A5C0CB
:100BA000EF81F885CE16DF0609F49FC0D6011D96A9
:100BB000ED91FC911E97309721F08081882309F4F4
:100BC00094C0622DC6010E940F24882309F48DC0B1
:100BD0000A151B0511F4320102C0612C712CB62DCF
:100BE000B170BE8381E0A114B10441F0B11106C01F
:100BF000E985FA85AE16BF0609F080E080FF75C072
:100C000080E00E94A023D0921A03C092190381E0D1
:100C100080931603D60115968C9180931403BE81A0
:100C2000B11113C0AB2889F0F601808191819C013C
:100C300024503109213A310530F4682F8DEE91E0CE
:100C40000E94E32102C00E943B20D6011696AD907F
:100C5000BC901797C5019A9581159F4110F4E0EE5D
:100C6000BE2255245394C50101978F339E4708F047
:100C7000512CD6011996ED91FC911A97309739F0C5
:100C80001B966D917C911C9781E009955822552007
:100C900029F1F601868197810E94FE338093150326
:100CA000C501F8E08F16910418F40E944F2316C076
:100CB0000497813A910530F46A2D8DEE91E00E94FF
:100CC0000B220EC00E94212B8FE39CE90197F1F7C4
:100CD00000C000008A2D0E94712002C00E94212BBA
:100CE00091E0692660FE79C1C3CEAD81AF5FAD836F
:100CF0001ACF80917801909179010817190781F432
:100D00001092790110927801109210031092110341
:100D100010921203109213031092180310921703EB
:100D20008091190390911A03009709F4A1CEB8E0BD
:100D30008B16910438F4622D0E940F24811198CEF5
:100D400081E014C0FC01208131810217130729F4CE
:100D5000311006C01092160308C0332009F488CE63
:100D6000DC0118968C9185FD83CE80E00E94A02343
:100D70007FCE5801BB24C50154E0880F991F5A95B6
:100D8000E1F7FC01E453FC4F6F01D70115962C915C
:100D90001597FC01EF52FC4F5F01808120FB80F929
:100DA000808315968C918823A1F10E94AE219093A7
:100DB000910180939001D60112968C9112978F5FCA
:100DC00012968C93129790911E0380910D02892B9D
:100DD00013968C9313978091A50314968C93149774
:100DE00016964D915C9117971E966D917C911F9769
:100DF000C6010E949722F501808181FF03C090E027
:100E000080E002C0902F812F90931F0380932003D6
:100E10001EC0D6011C964D915C911D971E966D913A
:100E20007C911F97C6010E949722F501808181FF66
:100E30000EC0C6010E949D2280911F039091200345
:100E40000817190721F41092200310921F038091B4
:100E5000490280FF93C00E94AE216C01D701159614
:100E60008C918823B1F180910C0182FF08C022E9A6
:100E700031E040E0B60180E090E00E94AC26043111
:100E8000BCE71B07A9F00531ECE71E0751F0033161
:100E9000FCE71F07A1F480910C01816080930C0195
:100EA0000EC080910C01982F909590FB80F903C0A3
:100EB00080910C018E7F80930C010E947226C801E4
:100EC00090528115904358F5109255021092540299
:100ED00055C0013E110521F480910C018F7E06C0A2
:100EE000053E110531F480910C018F7D80930C013A
:100EF00016C0C80190528115904388F480910C016E
:100F000082FF3CC080914B0281FD38C022E931E074
:100F100040E0B60180E090E00E94AC262FC08091B6
:100F20000C0180FF2BC0D70115968C91083211055A
:100F300038F40E311105B8F40430110578F41CC0F2
:100F40000933110538F40D32110590F40B321105F7
:100F500079F012C00436110559F00EC09091490283
:100F600094FD0AC03DC09091490293FD05C038C070
:100F70009091490292FF34C08111E4C0F801E85118
:100F8000FC47E730F10508F4CAC1F70195819111DA
:100F9000E4C00631FCE71F0709F01BC280910D0277
:100FA000282F2A7A3091480230FDECC131FDF0C182
:100FB00032FDF4C133FDF8C1992309F4FEC181E08B
:100FC000211101C080E080937A01222309F4F3C14A
:100FD00065E38DEE91E00E940B220E94212B34C527
:100FE000882309F4A8C09091A50380910D02892B54
:100FF0008D7F79F11092550210925402809149022E
:1010000081FD27C0F80143E0F695E7954A95E1F7A1
:10101000EE71FF27E25FFD4F98012F70332781E0CB
:1010200090E002C0880F991F2A95E2F7809590956D
:10103000208131818223932391838083A70160E003
:10104000C8010E9491268091A5038D7F0E947E2A6F
:101050006EC089E0F701A2E9B1E001900D928A9596
:10106000E1F71092970110929501109294018091EE
:1010700054029091550208171907E1F58091490231
:1010800085FF38C090910C0191FF02C086FF32C0ED
:1010900080915202909153025601A81AB90AB701E1
:1010A000C8010E94D12EA816B90620F580910D0224
:1010B00081FF08C080910C01806180930C0182E067
:1010C0000E94AE2A80910D0285FF08C080910C011C
:1010D000806280930C0180E20E94AE2A60910C0134
:1010E00066956170A70180915402909155020E940B
:1010F0009126AAC48091A50390910D02982B9695F4
:10110000917020910C0190FB21F920930C018D7FAF
:101110000E947E2A1093550200935402D0925302EB
:10112000C092520280910C01846080930C0182E095
:101130000E94C22A89C4970140E0B601C8010E94FA
:10114000AC2682C41092550210925402F801E85164
:10115000FC47E730F10508F4E2C010921D03C80116
:101160009057839708F00CC184E090E00E9480348F
:101170009093AB018093AA01F801E150F047E2326D
:10118000F10520F4EA5AFF4F0C94FA348091AA0139
:101190008160ACC08091AB018860B4C08091AA012D
:1011A0008260A4C08091AA0120C08091AA018860B9
:1011B0009DC08091AB011EC08091AB018260A2C036
:1011C0008091AA01806192C08091AA0180628EC044
:1011D0008091AA0180648AC00E94A81E8091AA0101
:1011E000806884C08091AA01886084607FC08091FB
:1011F000AB018260816086C08091AA018E7F76C03B
:101200008091AB01877F7EC08091AA018D7F6EC0E7
:101210008091AA0120C08091AA01877F67C0809138
:10122000AB011EC08091AB018D7F6CC08091AA0183
:101230008F7E5CC08091AA018F7D58C08091AA01E9
:101240008F7B54C00E94A81E8091AA018F774EC048
:101250008091AA01877F8B7F49C08091AB018D7FF0
:101260008E7F50C08091AA0182FB222720F991E055
:10127000922790FB82F990FB83F938C08091AB01F3
:10128000982F909591708E7F892B90FB81F93AC0B1
:101290008091AA0186FB222720F991E0922790FBFA
:1012A00086F924C00E94A81E8091AA0187FB2227EC
:1012B00020F991E0922790FB87F918C061E001C006
:1012C00060E08EE090E00E9496341EC08091AA01FA
:1012D00084FB222720F991E0922790FB84F906C035
:1012E0008091AA01982F909590FB80F98093AA0194
:1012F0000BC08091AB0183FB222720F991E092275C
:1013000090FB83F98093AB016091AA017091AB01CE
:1013100084E090E00E94B4340E94A81E95C3E8586F
:10132000FF4F0C94FA3406E221EE41EE6AE17CE7CD
:1013300023C007E225EE45EE6BE17CE71DC006E227
:1013400021EE40EE68E17CE717C007E225EE44EEAF
:1013500069E17CE711C006E221EE42EE6CE17CE738
:101360000BC007E225EE46EE6DE17CE705C008E222
:1013700021E045EE6EE17CE7C7010E94DD2264C3F7
:1013800091E007CE482F447409F410CE20E00ECE31
:10139000482F417109F40CCE20E00ACE482F48783E
:1013A00009F408CE20E006CE827209F405CE992316
:1013B00021F010927A0169E20CCE80917A018823A3
:1013C00011F065E301C069E28DEE91E00E94E32136
:1013D00004CE07372CE7120711F481E005C0083767
:1013E0003CE7130771F482E0992319F00E946F1C07
:1013F00002C00E94621C43E062E081E00E94401C47
:1014000023C3D70115968C918823E9F10330BCE7FB
:101410001B0729F148F40115FCE71F0791F0013083
:101420002CE7120711F12FC00B353CE7130741F1F0
:101430000C354CE71407E1F00A351C4721F581E033
:1014400020C00E94A81E8FEF94E3ACE08150904032
:10145000A040E1F700C000000E944921F5C26FEFF3
:101460007FEF80E090E00E94B4340E94E833ECC249
:101470008091AB0182FB882780F991E0892701C028
:1014800080E00E94D92AD70117968D919C911897D8
:101490000097C9F4D70115968C9115970D911C9161
:1014A000882349F0C8010E94911BD82E682FC801DB
:1014B0000E94011C04C0C8010E94CD1BD82EB80197
:1014C0008D2D0E9415290E943229182F092FF7010E
:1014D000B580C680C2943FE0C322809182038770AA
:1014E000E9F0BB20D9F0892F807F803451F080E271
:1014F000810F883098F0C11004C0892F807E80321F
:1015000069F08091AB0182FF09C082E00E94C22A8B
:10151000809182038770AA24A3948111A12C902E1C
:1015200092942FE09222892D90E08C30910508F062
:1015300036C2FC01E158FF4F0C94FA34902F9F7093
:10154000802F807FD92E19F0D29490EFD922BB2022
:10155000A9F0DD2009F403C280E2810F883010F089
:10156000111104C08D2D0E94B52A05C080911E0363
:10157000D82AD0921E030E94212BF1C1812F0E94F4
:101580003B20DD2009F40BC280E2810F883068F136
:10159000112359F18D2D0E94A72A2AC0902F9F70E8
:1015A000802F807FD92E803219F0D29480EFD822FC
:1015B000112321F0113009F469C074C08091AB018E
:1015C00082FD19C0BB2059F0DD2029F08D2D0E942D
:1015D000B52A0E94212B80E00E947120E0C180E0AA
:1015E0000E943B20DD2009F4DAC18D2D0E94AE2A35
:1015F0000E94212BD4C1BB2081F1CC2009F473C0FF
:10160000F1E0CF1212C08091A5038D21D81609F404
:10161000C6C10E94AE219093A4038093A30380913E
:10162000A503D82AD092A503BAC180914A0282307C
:1016300008F4B5C1C812B3C18D2D0E945C1F8D2D59
:101640000E94922A80917F039D2D9823D91609F438
:10165000A6C1D82AD0927F03A2C1CC2069F0809184
:101660004A02823008F49BC121E0C21298C18091E5
:101670000D028D2109F493C18D2D0E94551F8D2DD2
:101680000E94922A8D2D0E94902B89C18091500238
:10169000BB2021F08C1508F482C125C0C81608F0C3
:1016A0007EC127C0BB2019F1CC20E9F020E0D70192
:1016B0004C9111965C91119712966C91129713961A
:1016C0007C91139714968C91149715969C910E9477
:1016D000753180914B0281FD42C1F701868180FF07
:1016E0003EC18F7086838D2D0E945C1F58C1C11032
:1016F0003FC18D2D0E94551F52C1802F8695869522
:10170000837019F0813061F04AC1BB2021F0812F34
:10171000902F937002C080E090E00E94652245C146
:10172000BB2021F0812F902F937002C080E090E0C9
:101730000E9440223AC16B2D812F0E94631F35C148
:10174000802F8370A1F5B1102EC1412F429546958F
:101750004770440F440F212F2F7030E0C901042E31
:1017600001C0880F0A94EAF714FF08C02FE030E0A8
:1017700001C0220F4A95EAF7209501C020E0302FE2
:10178000369536953370323069F040F440918501DA
:10179000313019F0822B842302C0842B822B0E94CB
:1017A0007B1C01C1282B809185018227F8CFBB20AB
:1017B00019F0802F817001C08695882309F4F3C049
:1017C000412F429546954770440F440F212F2F70AB
:1017D00030E0C901042E01C0880F0A94EAF714FF13
:1017E00008C02FE030E001C0220F4A95EAF72095AB
:1017F00001C020E0302F369536953370323051F0ED
:1018000070F440918601313019F0822B842308C096
:10181000842B05C0282B80918601822701C0822B52
:101820000E94361CC0C0F02FFF70DF2EBB2039F0A5
:101830008F2F0E946F1C812F0E945C1FB4C0812FCC
:101840000E94551F8D2D0E94621CADC0123F11F1E8
:1018500028F4103F41F0113FA9F17DC0133F01F181
:10186000143F61F178C080915002BB2021F0C8166E
:1018700008F095C003C08C1508F491C0202F2F717B
:1018800081E090E001C0880F2A95EAF790918601E7
:10189000892711C0802F8F71BB2009F464C07BC0E1
:1018A000BB2041F081E0902F9F7101C0880F9A9575
:1018B000EAF701C080E00E94361C71C08091AB0144
:1018C00082FD06C0802F8F71BB2009F464C04BC01D
:1018D00080914A02823040F1BB20C1F09091820396
:1018E0009770943039F40E94BB2A802F8F710E9428
:1018F000621C54C0C81608F051C0202F2F71D22E80
:10190000822F0E946F1C63E08D2D07C0C81640F027
:101910000E94BB2A64E0802F8F710E94F02A3EC093
:1019200081E00E94C22A3AC0BB2059F0302F3F719B
:10193000D32E832F0E946F1C63E08D2D0E94F02A0E
:101940002EC081E00E94C22A41E04C1540F582E0A1
:101950000E94C22A24C0BB2049F0CC2011F0812F64
:101960003BCE802F8F710E946F1C19C0CC2089F054
:10197000193329F480914E0290914F0204C0809156
:101980004C0290914D020E94A126812F0E943B2083
:1019900006C0802F8F710E94621C01C0A12C88EFAD
:1019A000890D843010F40E948A22812F902F0E948A
:1019B0007E1C811105C010927C0110927B0128C011
:1019C000BB2019F0C110F7CF23C0C110F4CF20E025
:1019D000D7014C9111965C91119712966C911297C8
:1019E00013967C91139714968C91149715969C914D
:1019F0000E94753180914B0283FFDDCF80917B0186
:101A000090917C010297B9F6812F0E94E520D3CFF7
:101A1000AA20A9F08091820380FD11C0F7011582F0
:101A20008695869586950E946F1CC7010E94CB0300
:101A3000809182038695869586950E94621C60E05F
:101A4000C7010E949A310FC080918203877059F0BC
:101A5000F7018581882339F08091AB0182FF03C0B3
:101A600082E00E94C22A2C96E2E10C942335A9E37D
:101A7000B0E0EDE3FDE00C94073585B7806885BFE5
:101A800085B7806885BF84B7877F84BF0FB6F89419
:101A9000A89580916000886180936000109260003A
:101AA0000FBE90E080E80FB6F894809361009093A9
:101AB00061000FBE8FE597E29093770180937601E6
:101AC0000E94EF2E0E948D2E0E94192E0E94A02DA2
:101AD0000E940D1A0E942C1A8091E200846080936B
:101AE000E20078948091D1018823A1F01091E9005F
:101AF0001F709091EC00892F817090FD80E8182B69
:101B00001092E9008091E80083FD0E94F2161F7098
:101B10001093E90082E084BD93E095BD9AEF97BDF4
:101B200080936E000E949C30811102C00E948C3014
:101B30000EE111E0A2E2EA2EA1E0FA2ED8018D9189
:101B40008D018F3F11F00E944C28E016F106B1F78D
:101B500002E211E0FEE2EF2EF1E0FF2EF8018191AA
:101B60008F018F3F11F00E944C28E016F106B1F76B
:101B700088E0E0EAF1E0DF01282F1D922A95E9F7DD
:101B8000EDE7F1E0DF011D928A95E9F780E090E052
:101B90000E948034863E9E4F21F40E949C30811129
:101BA00067C066EE7EEF80E090E00E94B43460E0B3
:101BB00082E090E00E94963460E083E090E00E9432
:101BC00096341092850160E074E184E090E00E9418
:101BD000B43460E086E090E00E9496346FEF87E0D6
:101BE00090E00E94963440E050E0BA0188E090E036
:101BF0000E94A83460E084E290E00E94963460E0A5
:101C000087E190E00E94963460E08CE090E00E94D2
:101C1000963460E08DE090E00E94963419821A823A
:101C20001B821C821D821E821F82188648E050E0A3
:101C300068E170E0CE0101960E94863440E050E0F9
:101C4000BA0180E290E00E94A83480E00E946D30EA
:101C50000E948C3040E050E0BA018FE090E00E949A
:101C6000A83440E050E0BA0183E190E00E94A8343B
:101C700082E090E00E9478348093870184E090E0D5
:101C80000E9480349093AB018093AA010E94632844
:101C9000EFEFF6E721E0E150F0402040E1F700C02F
:101CA00000000E9463288091A00180FF08C06FEFB0
:101CB0007FEF80E090E00E94B4340E94492183E0ED
:101CC00090E00E9478340E947B1C81E091E0909328
:101CD0002403809323032E013BE2430E511C809189
:101CE000D101853009F047C000E112E18091D101B6
:101CF000853009F03CC08091D101843021F11092EF
:101D0000270388E190E0A0E40FB6F894A8958093AB
:101D100060000FBEA093600083B7817F846083BFA3
:101D200083B7816083BF7894889583B78E7F83BFA4
:101D30000FB6F894A8958091600088618093600048
:101D4000109260000FBE8091D001882309F4CECF9D
:101D50000E946328E0EAF1E081919191892B09F0DA
:101D600092C628EA31E02E173F07B1F7BFCF0E9495
:101D7000A81E0E948A220E94632808E811E0E0EA77
:101D80008E2EE1E09E2E20E931E0D401F801419150
:101D900051918D919D91842795272E173F0719F01A
:101DA000892BA9F305C0892B19F40E944F2A3FC043
:101DB000712C33243394D401AD90BD904D01F801C2
:101DC000C080D180CA24DB24C114D10441F1612C2C
:101DD000EE24E394F12CC6018E219F21892BB1F0D2
:101DE0006CAA7DAA0E94AE219FAB8EAB38AE91E06B
:101DF00095012E213F21232B09F490E099AF4CA9A6
:101E00005DA96EA97FA988AD0E94A9316394EE0CEB
:101E1000FF1CFCE06F12DFCFD801AD92BC9273942F
:101E20000E5F1F4FB4E07B12C6CF0E94A2218091AB
:101E3000170390911803892B09F43EC040910C03BD
:101E400050910D0360910E0370910F032FB7F8941A
:101E50008091280390912903A0912A03B0912B032C
:101E60002FBF841B950BA60BB70B40910803509115
:101E7000090360910A0370910B0384179507A60765
:101E8000B707D0F080911703909118030E94453452
:101E9000109218031092170310920C0310920D0366
:101EA00010920E0310920F03109208031092090370
:101EB00010920A0310920B0380911F03909120034C
:101EC000892B51F180919001909191010E94932171
:101ED0008C0189E0F20111928A95E9F7B2018091B3
:101EE0001F03909120030E94D12E80179107A0F428
:101EF00080911F0390912003992754E0880F991F28
:101F00005A95E1F7FC01EF52FC4F208122FD04C0FD
:101F100084539C4F0E94B62280910D01882341F189
:101F20008091040390910503009711F10E94932181
:101F3000209156023091570228173907C8F4909122
:101F4000020380910303981759F00E94D92510923B
:101F5000570210925602109205031092040308C013
:101F60000E946F2510920503109204030E94B92568
:101F70008091490280FF1EC080910C0182FF1AC02F
:101F80000E94AE212091520230915302AC01421BBB
:101F9000530B20910A0130910B014217530750F067
:101FA00022E931E041E0BC01809154029091550258
:101FB0000E94AC2686E0E2EBF3E08E010F5F1F4F3C
:101FC000D80101900D928A95E1F7B090B303C090CB
:101FD000B403D090B503E090B603F090B70310922D
:101FE000B4031092B5031092B6031092B703C11058
:101FF00003C0DD2009F454C08091B0039091B10377
:102000000E949321AC019091AB03992339F0209168
:10201000140130E02417350758F042C02091150113
:10202000FAE02F9F900111242417350718F038C0CB
:102030009F3F19F09F5F9093AB03CC2061F00E940B
:1020400018311C1414F491E001C09FEF899F802D7A
:1020500011248093B403DD2061F00E9418311D1417
:1020600014F09FEF01C091E0899F802D112480938F
:10207000B5038091B403882399F0A090B503AA20FA
:1020800079F00E946731811101C081E08093B4032F
:102090008A2D0E946731811101C081E08093B503D0
:1020A000E11003C0FF2009F454C08091AE03909169
:1020B000AF030E949321AC019091AC03992339F0B6
:1020C0002091100130E02417350758F042C02091CC
:1020D00011018AE0289F900111242417350718F078
:1020E00038C09F3F19F09F5F9093AC03EE2061F0E2
:1020F0000E94DF301E1414F491E001C09FEF899F0D
:10210000802D11248093B603FF2061F00E94DF3000
:102110001F1414F09FEF01C091E0899F802D1124BE
:102120008093B7038091B603882399F0A090B703FA
:10213000AA2079F00E946731811101C081E080936B
:10214000B6038A2D0E946731811101C081E080931E
:10215000B7038091B3038B111AC08091B403882315
:1021600011F08C1114C08091B503882311F08D11EA
:102170000EC08091B703882311F08F1108C0909191
:10218000B603992331F081E09E1104C002C081E0C2
:1021900001C080E080FD15C08091B40381110FC0A3
:1021A0008091B50381110BC08091B603811107C0E6
:1021B00081E09091B703911103C080E001C081E0FC
:1021C00080FD0E94B530BA82CB82DC82ED82FE8235
:1021D00086E0F801A2EBB3E001900D928A95E1F759
:1021E0000E948A2290919B01891721F080939B0184
:1021F0000E94A2218091D101843009F070CD83E04A
:102200008093E9008091E80082FF69CD8091E80029
:1022100085FF21C00E945E1B81111BC040E2E42E9D
:10222000F12C680109C08091F100D6018D936D01F8
:10223000B1E0EB1AF10869F08091E80085FDF3CF79
:102240008091E8008B778093E8000E945E1B8823D2
:1022500099F391E001C090E08091E8008B77809342
:10226000E800992309F43BCDE090A801F090A90182
:102270008981E114F10461F08E3F09F0FDC38A8188
:10228000833008F4C4C18550833008F0F5C3BFC162
:102290008B3009F4A3C110F5853009F478C0B0F48F
:1022A0008230C1F130F4813009F0E4C31A8289E050
:1022B0000FC3833009F45EC0843009F0DBC34C8166
:1022C0006B818A810E9413259D83FAC3873009F4AC
:1022D000D1C308F0CFC30E947B24CEC3803109F460
:1022E000BEC060F48D3009F45FC008F45BC08E306E
:1022F00009F45DC08F3009F484C0BCC3823109F495
:10230000B4C008F4AFC0833109F4D9C08E3F09F4DA
:102310007EC1B0C38A81823009F4CBC3833051F0CF
:10232000813009F0A7C30E94A2219B838C837D8307
:102330006E83A2C38091060390910703892B09F451
:102340009BC38091A0019091A1019B838C8380917C
:10235000A2019091A3019D838E838091A40190910D
:10236000A5019F8388878091A6019091A7019987F5
:102370008A8782C38A81823009F07CC36B817C8129
:102380008D819E810E9400350E94683075C32D8129
:102390003E813227232732274C816B818A810E941C
:1023A00054246AC380E15FC01A8283E891C2EA8044
:1023B000FB80FE24EF24FE24AC80B12CEDE1AE16B0
:1023C000B10408F059C36801C70183589C4F9601B6
:1023D000201B310B2A153B0508F04EC3F3E8EF161E
:1023E000F10430F40E947834D60114968C9302C024
:1023F000F6011482FFEFEF1AFF0A2FEFC21AD20A7A
:10240000E3CF8091060390910703892B09F434C32D
:10241000EA80FB80FE24EF24FE24CC80D12C3DE119
:10242000C316D10408F028C35801C70183589C4F34
:102430009501201B310B2C153D0508F01DC343E809
:10244000E416F10428F4D50114966C910E94963498
:10245000BFEFEB1AFB0AEFEFAE1ABE0AE6CF0E94FF
:102460002F240AC386E08A8307C3EA80FB80FE2408
:10247000EF24FE24AC80B12CFDE1AF16B10408F0CE
:10248000FBC26801C70189969601201B310B2A15F2
:102490003B0508F0F1C220E4E21622E0F20630F437
:1024A0000E947834D60114968C9302C0F6011482EF
:1024B000FFEFEF1AFF0A2FEFC21AD20AE3CFEA802A
:1024C000FB80FE24EF24FE24AC80B12C3DE1A3165A
:1024D000B10408F0D1C240E4E41642E0F40608F08A
:1024E000CBC280E492E08E199F098A159B0508F4FF
:1024F000C3C2370189E2680E711C80910603909176
:102500000703892B11F0680160C0E0FE0FC0C7010E
:1025100088960E94783490E0982F88272D81822B0E
:1025200081159C4731F48FEF8D8303C0C12CD12CD2
:1025300003C0CC24C394D12CC7018A0D9B1D450137
:1025400080FF1BC0B1E08B1A9108B5E02B2E312C17
:102550002C0E3D1E280C391CC3018A0D9B1D0E94A8
:102560007834F101208130E0322F2227282B2115E9
:102570003C4719F48FEFD1018C93F801EC0DFD1D50
:102580002FEFCF01801B910B8815990508F0BBCF69
:10259000848190E0982F88273581832B81159C4773
:1025A00011F4248325833296ECCFE0E4EE16E2E0CA
:1025B000FE0628F4D60114966C910E949634BFEF63
:1025C000EB1AFB0AEFEFCE1ADE0AC70189969601D5
:1025D000201B310B2A153B0540F34EC280910603A8
:1025E00090910703892B09F447C240E250E0B801FB
:1025F00082E00E940B21FFEF21EE34E0F1502040F9
:102600003040E1F700C000000E94492135C2EA8154
:102610008E2F90E08E30910508F02EC2FC01E55718
:10262000FF4F0C94FA3488E0E6E1F1E0DE01919688
:1026300001900D928A95E1F780E2D8011D928A956A
:10264000E9F786E0898388E0FE01B196DE01159600
:10265000E6C18CEC89831A821B821C820DC28C819C
:1026600090E0982F88272B81820F911D092E000C56
:10267000AA0BBB0B75E0880F991FAA1FBB1F7A9589
:10268000D1F7AC01BD01405E5F4F6F4F7F4F4817E0
:1026900059076A077B0708F4EFC18C3C9105A10537
:1026A000B10508F0E9C14D3C51056105710520F007
:1026B0004CEC50E060E070E0481B590BBC016C5AD8
:1026C0007E4FC8010E945F34D7C140E250E06FEFF7
:1026D00070E0C8010E945435809106038983EA8224
:1026E0001B821C821D8281E0EBC181E090E090930F
:1026F000A9018093A80182E390E090939F018093C9
:102700009E010E94AE2190939D0180939C01B4C1D3
:10271000EF28B9F18091A0019091A1019C0136951B
:1027200027958170F82EF22280919C0190919D0155
:102730000E94932185369105F0F0FF20E1F00E9480
:10274000AE2190939D0180939C0180919E01909178
:102750009F01019790939F0180939E01892B89F49B
:102760001092A9011092A80181E090E090930703D4
:102770008093060306C082E390E090939F018093CC
:102780009E018091060389838091A8018A838091AC
:102790009E019EC010920703109206036DC1EB804C
:1027A000FC8040E250E06FEF70E0C8010E945435B9
:1027B00025E236E0A1E2B7E080E090E0AC014E5FB8
:1027C0005F4F4132510508F057C1F901659174918D
:1027D000E616F70630F4F801E80FF91F71836083FD
:1027E000CA01245F3F4FA217B30741F745C14B8190
:1027F0005C8121E237E085E296E0FC01659174910D
:102800004617570729F00C9628173907B1F732C138
:10281000009709F42FC1FC013696259134912115BA
:10282000310509F427C14FE150E0BE016E5F7F4FD3
:10283000F901099520C12B813C8181E297E045E2B5
:10284000E42E46E0F42EF701459154912417350704
:1028500039F0FCE0EF0EF11C8E159F05A1F70AC1BF
:10286000E114F10409F406C1F70138962591349179
:102870002115310509F4FEC04CE150E0BE016B5F4B
:102880007F4FC701F9010995009709F0F4C0F701DE
:102890003A9685919491009711F0FC01099580E09A
:1028A000EAC00E94C72DE8C0EB818E2F90E08730F0
:1028B000910508F0E1C0FC01E756FF4F0C94FA3493
:1028C00080E2D8011D928A95E9F788E089838A839E
:1028D0008B83D2C08C819AE0D92E7E01B1E2EB0EBF
:1028E000F11CF7012D2D11922A95E9F7B7010E94ED
:1028F0003F248983F701DE01129601900D92DA944C
:10290000E1F7BAC0FC808AE0FE013596DE019196BF
:1029100001900D928A95E1F789A19AA10E94583001
:102920009AA389A38BA19CA10E9458309CA38BA33E
:102930008DA19EA10E9458309EA38DA38FA198A522
:102940000E94583098A78FA337E03F1570F04AE0F7
:10295000F49EB001112463577D4F4AE050E0CE0150
:1029600081960E94BA3480E001C08FEF89830E9473
:10297000EF2E82C06C81CE0181962AE0DC011D928F
:102980002A95E9F7683008F043C0BAE06B9FB001C0
:10299000112463527D4F36C0FC808AE0FE013596DB
:1029A000DE01919601900D928A95E1F789A59AA58D
:1029B0000E9458309AA789A7E7E0EF1570F0FAE077
:1029C000FF9EB001112463527D4F4AE050E0CE01DA
:1029D00081960E94BA3480E001C08FEF89830E9403
:1029E0008D2E4AC06C81CE0181962AE0DC011D92B9
:1029F0002A95E9F7683060F4BAE06B9FB0011124C2
:102A0000635D7C4F4AE050E00E94683480E001C082
:102A10008FEF89838AE0FE01B196DE011296019064
:102A20000D928A95E1F728C0FC808AE0FE01359678
:102A3000DE01919601900D928A95E1F78BA19CA100
:102A40000E9458309CA38BA3E7E0EF1570F0FAE0EA
:102A5000FF9EB0011124635D7C4F4AE050E0CE013F
:102A600081960E94BA3480E001C08FEF89830E9472
:102A7000192E02C08FEF898340E250E0B80182E056
:102A80000E940B212CC909BD19BD09B400FEFDCF60
:102A90008091D8008F7D8093D8008091E000826083
:102AA0008093E0008091E00081FDFCCF0E94A81E91
:102AB0001DC988E290E00E9478341B821C821D822E
:102AC0008E83DACF8091D30187FF11C08091E80017
:102AD00082FD05C08091D1018111F8CF11C0809194
:102AE000E8008B770BC08091D101882349F0809159
:102AF000E80080FFF8CF8091E8008E778093E800AF
:102B00000895982F973068F59093E900981739F059
:102B10007091EC002091ED005091F00003C0242F43
:102B2000762F50E021FD02C09F5FECCF3091EB008B
:102B30003E7F3093EB003091ED003D7F3093ED0010
:102B40003091EB0031603093EB007093EC002093F8
:102B5000ED005093F0002091EE0027FDE5CF80E0DE
:102B600008958F708093E90081E008952091D90144
:102B70003091DA012617370748F06115710539F4ED
:102B80002091E8002E772093E80001C0B901FC01F4
:102B900020E06115710579F18091D1018823F1F16F
:102BA0008530F1F18091E80083FD3CC08091E80020
:102BB00082FD2EC08091E80080FFEBCF2091F300D2
:102BC0008091F20090E0922B6115710551F08830F0
:102BD000910538F421912093F1006150710901961B
:102BE000F3CF21E0089709F020E08091E8008E778C
:102BF0008093E800CECF2111CFCF0AC08091D101C0
:102C0000882361F0853061F08091E80083FD0AC07F
:102C10008091E80082FFF2CF80E0089582E008957D
:102C200083E0089581E0089543E050E0BC0184E032
:102C30000E940B21089546E050E0BC0184E00E9410
:102C40000B210895CF93DF93EC018091090181114D
:102C500005C048E050E0BE0181E00BC08091AA01B0
:102C600087FF03C040E284E002C048E081E050E01A
:102C7000BE010E940B2180E2FE01AFEAB1E00190AB
:102C80000D928A95E1F7DF91CF910895A0E0B0E031
:102C9000ECE4F6E10C940F35EC018AE0A82E2881D3
:102CA000222309F49AC0213009F041C08981813082
:102CB00039F48E010E5F1F4F8A810E94E52008C003
:102CC000823041F48E010E5F1F4F8A810E94712075
:102CD000E80181C0833039F48E010E5F1F4F8A8175
:102CE0000E943B20F5CF843011F0219674C02A81D8
:102CF000229680E090E030E0205331092A303105FF
:102D000058F4A89EA001A99E500D1124C901840F5A
:102D1000951F21962881EFCF009709F45CC0EFE959
:102D2000FFE03197F1F700C000000197F5CFE22FE7
:102D3000F0E0EB5DFB4FB490822F869586958695EB
:102D400090E0FC01EB5EFB4FE4902770F12C022E2B
:102D500002C0F594E7940A94E2F7F1E0EF22FF2431
:102D6000FC01EB5FFB4FC490D12C022E02C0D59426
:102D7000C7940A94E2F731E0C322DD24FC01EB5052
:102D8000FC4F049110E002C0159507952A95E2F7D3
:102D900001701127E114F10419F081EE0E947120F5
:102DA000C114D10419F086EE0E9471208B2D0E946F
:102DB000E520C114D10419F086EE0E943B20E114F5
:102DC000F10419F081EE0E943B200115110519F064
:102DD0008CE20E94E520219662CFCDB7DEB7EAE013
:102DE0000C942B35AAE2B0E0E8EFF6E10C9416352E
:102DF000E3EDF1E08BED91E02091F10021938E174E
:102E00009F07D1F78091D401833009F463C030F477
:102E1000813071F0823009F49DC0B4C08A3009F469
:102E200089C08B3009F46EC0893009F0ABC020C076
:102E30008091D301813A09F0A5C08091E800877F95
:102E40008093E8008091D7019091D801892B21F4DB
:102E500060E28FEA91E003C060E080E090E070E023
:102E60000E94B6158091E8008B778093E8008AC0B5
:102E70008091D301813209F085C08091D701909172
:102E8000D801009719F0029709F07CC08091E80002
:102E9000877F8093E8008091E80082FD05C08091E3
:102EA000D1018111F8CF6EC02091F3008091F20022
:102EB00090E0922B029731F48091F100813011F073
:102EC000863021F48091F1008093AE018091E8007A
:102ED0008B7754C08091D301813A09F053C080911F
:102EE000D7019091D801892B09F04CC08091E8005E
:102EF000877F8093E8008091E80080FFFCCF80917D
:102F0000090137C08091D3018132E1F58091D70169
:102F10009091D801892BB1F58091E800877F80934B
:102F2000E8000E9462158091D501809309010E94FA
:102F3000A81E28C08091D301813221F58091E8003C
:102F4000877F8093E8000E9462158091D60180936C
:102F5000AD0118C08091D301813AA1F48091E800BD
:102F6000877F8093E8008091E80080FFFCCF80910C
:102F7000AD018093F1008091E8008E778093E800A6
:102F80000E9462158091E80083FFEBC18091D3011C
:102F90009091D401492F50E04A30510508F0E1C129
:102FA000FA01E056FF4F0C94FA34803821F0823851
:102FB00009F0D7C108C08091CF019091D001992329
:102FC00089F082600FC08091D7018F70873008F040
:102FD000C8C18093E9008091EB0085FB882780F9C8
:102FE0001092E9009091E800977F9093E800809319
:102FF000F1001092F1007CC1282F2D7F09F0B1C1A2
:10300000882319F0823061F0ACC18091D501813004
:1030100009F0A7C1933009F080E08093D0012EC061
:103020008091D50181112AC08091D7018F702FEF37
:10303000280F263008F095C18093E9002091EB001D
:1030400020FF1CC0933021F48091EB00806214C0FB
:103050009091EB0090619093EB0021E030E0A901AA
:1030600002C0440F551F8A95E2F74093EA00109280
:10307000EA008091EB0088608093EB001092E900F9
:103080008091E800877F8093E8000E94621569C103
:10309000811167C11091D5011F778091E30080787D
:1030A000812B8093E3008091E800877F8093E80084
:1030B0000E9462158091E80080FFFCCF8091E300C0
:1030C00080688093E300111102C082E001C083E0B8
:1030D0008093D10146C18058823008F042C12091CE
:1030E000D5013091D6012C3D53E0350779F583E0C9
:1030F0008A838AE289834FB7F894DE01139620E031
:103100003EE051E2E32FF0E050935700E49120FFBE
:1031100003C0E295EF703F5FEF708E2F90E0EA30D2
:1031200010F0C79601C0C0968D939D932F5F2431F8
:1031300049F74FBF8091E800877F8093E8006AE2FB
:1031400070E0CE0101960E94B615C0C08091D701F3
:103150009091D801432F552743305105B1F068F4C1
:103160004130510509F40CC14230510509F0F9C054
:103170008BE590E0ECE3F3E057C04132510589F173
:103180004232510509F43CC0ECC0C9019927813095
:103190009105B9F070F082309105D9F0039709F0EC
:1031A000E0C0E9EAF3E0E4918E2F90E0E9EAF3E091
:1031B00038C0E1EFF3E0E4918E2F90E0E1EFF3E02F
:1031C00030C0EDEDF3E0E4918E2F90E0EDEDF3E013
:1031D00028C0E7ECF3E0E4918E2F90E0E7ECF3E019
:1031E00020C08330910508F0BCC0880F991FFC01F6
:1031F000E95CFE4F0190F081E02D89E090E014C081
:103200008330910508F0ADC0FC01EE0FFF1FEF5CAD
:10321000FE4F0190F081E02DDC01A25DBE4F8C914C
:1032200090E0009709F49DC02091E800277F20934B
:10323000E8002091D9013091DA012817390708F404
:10324000C90140E0009789F12091D101222309F4BE
:103250003DC02530D9F12091E80023FD37C02091F1
:10326000E80022FD2FC02091E80020FFEBCF409125
:10327000F3002091F20030E0342B009759F0283011
:10328000310540F444914093F100319601972F5F4E
:103290003F4FF3CF41E02830310509F040E0209165
:1032A000E8002E772093E800CDCF4111CDCF0AC0A2
:1032B0008091D101882351F0853041F08091E80060
:1032C00083FD04C08091E80082FFF2CF8091E80086
:1032D0008B778093E80045C0803809F042C0809128
:1032E000E800877F8093E8008091D2018093F1000D
:1032F0008091E8008E77C7CE811133C08091D501CF
:103300009091D6019927029764F58091E800877F14
:103310008093E8001091D5011093D2010E946215AC
:10332000111106C08091E30087FD02C081E001C059
:1033300084E08093D10142E061EC81E00E9481153C
:1033400042E261EC84E00E94811542E261EC82E09D
:103350000E94811542E260EC83E00E948115809119
:10336000D1018091E80083FF10C08091E800877F41
:103370008093E8008091EB0080628093EB0005C0B1
:1033800082E190E0E7E9F3E04FCFAA96E3E00C9406
:1033900032351F920F920FB60F9211242F933F9345
:1033A0004F935F936F937F938F939F93AF93BF934D
:1033B000CF93DF93EF93FF93C091E900CF7080919B
:1033C000EC00D82FD17080FDD0E81092E9008091F8
:1033D000F000877F8093F00078940E94F21610929C
:1033E000E9008091F00088608093F000CD2BCF70D1
:1033F000C093E900FF91EF91DF91CF91BF91AF9121
:103400009F918F917F916F915F914F913F912F91FC
:103410000F900FBE0F901F901895E8EDF0E080819F
:103420008E7F80831092E2001092DA001092E10009
:10343000A0EEB0E08C9181608C9380818F77808347
:1034400019BCA7EDB0E08C918E7F8C9380818F7E2C
:1034500080831092AC010895A0E0B0E0E2E3FAE1CD
:103460000C941135C8EDD0E088818F7E8883E7ED1C
:10347000F0E080818160808384E082BF81E080937E
:10348000AC0188818E7F888302EE10E0F801108203
:103490001092DA0081EEC82ED12CF60110828881BC
:1034A0008F77888388818068888388818F7D8883EF
:1034B00019BC1092D1011092D2011092D001109239
:1034C000CF0190EEE92EF12CF70180818B7F808374
:1034D00088818160888342E060E080E00E948115FD
:1034E000F60180818E7F8083F801808181608083F6
:1034F000808188608083F70180818E7F80838881CE
:1035000080618883CDB7DEB7E8E00C942D351F923B
:103510000F920FB60F9211242F933F934F935F9307
:103520006F937F938F939F93AF93BF93EF93FF938B
:103530008091E10082FF09C08091E20082FF05C016
:103540008091E1008B7F8093E1008091DA0080FF21
:103550002AC08091D80080FF26C08091DA008E7F3B
:103560008093DA008091D90080FF18C080E189BD86
:1035700082E189BD09B400FEFDCF81E08093D101D5
:103580008091AC0181110FC00E940D1A0E942C1A6B
:103590008091E20084608093E20005C019BC109223
:1035A000D1011092AC018091E10080FF17C08091A1
:1035B000E20080FF13C08091E2008E7F8093E200E2
:1035C0008091E20080618093E2008091D800806267
:1035D0008093D80019BC85E08093D1018091E100EF
:1035E00084FF30C08091E20084FF2CC080E189BD5F
:1035F00082E189BD09B400FEFDCF8091D8008F7DA6
:103600008093D8008091E1008F7E8093E1008091CB
:10361000E2008F7E8093E2008091E20081608093DF
:10362000E2008091D201882311F084E007C08091EC
:10363000E30087FD02C081E001C083E08093D101F7
:103640008091D1018091E10083FF27C08091E20049
:1036500083FF23C08091E100877F8093E10082E0B7
:103660008093D1011092D2018091E1008E7F8093EE
:10367000E1008091E2008E7F8093E2008091E20081
:1036800080618093E20042E060E080E00E9481156A
:103690008091F00088608093F000FF91EF91BF91DE
:1036A000AF919F918F917F916F915F914F913F91DA
:1036B0002F910F900FBE0F901F9018952091E4004E
:1036C0003091E50095E64091EC00842F817040FF39
:1036D00023C08091E80080FD1DC08091D101882326
:1036E00099F0853099F08091EB0085FD11C04091F3
:1036F000E4005091E5002417350729F3915011F0AB
:103700009A01E1CF84E0089582E0089583E008956E
:1037100081E0089580E008954091E80042FFDDCF08
:103720000895CF92DF92FF920F931F93CF93DF9371
:103730006C010091860180918501082BC5E0D0E0E5
:1037400010E0C8010C2E02C0959587950A94E2F707
:1037500080FD04C02197A8F7F12C09C0FC2EB6010A
:103760008C2F0E9415290E943229019799F38F2DE1
:10377000DF91CF911F910F91FF90DF90CF9008952F
:10378000CF93DF93EC010E94911BBE010E9415298B
:103790000E943229DF91CF910895292F943078F536
:1037A0008C3068F590E03CE0239F800D911D112442
:1037B000682F677023E0969587952A95E1F7FC01BD
:1037C000EE0FFF1FE80FF91FE552FE4F40E050E0FB
:1037D00080E0219130E0062E02C0369527950A94AC
:1037E000E2F721703327042E01C0220F0A94EAF772
:1037F000822B4F5F5F4F4330510559F7089580E0AA
:103800000895292F943088F58C3078F590E03CE0CD
:10381000239F800D911D1124282F277051E001C096
:10382000550F2A95EAF723E0969587952A95E1F7B3
:10383000FC01EE0FFF1FE80FF91FE552FE4F20E0DD
:1038400030E070E04081CB01022E02C09695879552
:103850000A94E2F7817081958427852384278193D8
:103860002F5F3F4F2330310569F70895982F9670E9
:10387000963011F4886001C0877F80938601089597
:103880009091860121E030E0F90101C0EE0F8A95A8
:10389000EAF7D90102C0AA0FBB1F6A95E2F7BD0182
:1038A0006E2B01C0220F4A95EAF7892F86236813F1
:1038B00003C0892F822B03C02095822F89230E9469
:1038C000361C089521E030E001C0220F8A95EAF706
:1038D00020958091860182230E94361C089521E064
:1038E00030E001C0220F8A95EAF780918601822B91
:1038F0000E94361C089580938501089592959F70CB
:10390000963079F010F4925001C09A50923068F4D9
:10391000803F69F018F4883E40F409C0843F29F4E0
:1039200006C0883E20F0813F11F080E0089581E0DC
:103930000895FC012481222371F0878190850097EE
:1039400019F00E94322904C0808191810E94C01B1D
:103950000E947E1C089580E00895A8E1B0E0E3EBAA
:10396000FCE10C940A358C0186E0F801DE015396E7
:1039700001900D928A95E1F7D80114967C901497E6
:103980001596EC908CE2A82E83E0B82E809130033F
:10399000811122C0772009F45BC0EE2009F455C0E4
:1039A000C8010E94991CF82E882309F44EC089E0B2
:1039B000F801ACE2B3E001900D928A95E1F78091B5
:1039C0003003813031F480912C0390912D030E94BB
:1039D000C01B0E94C42BB7C1F80150806180C28017
:1039E000D38060E08CE293E00E949A31F090310342
:1039F00080912E0390912F034601881A990A60E066
:103A00008CE293E0FF2009F426C10E949A316CE217
:103A100073E00E94D12E8816990608F0C5C0772061
:103A2000B9F080913203382F307F20912D03D801D7
:103A300011969C911197332371F0291709F473C0E3
:103A4000C8010E94991C811182C0C8010E94CB0349
:103A5000FF24F39478C129131FC020912C039C915B
:103A600029131AC0409133035091340317962D91B6
:103A70003C9118974217530779F4E1100DC08F70ED
:103A80008061809332038CE293E00E94CB038091AB
:103A90003203F801868356C1E1103BC040E0662D39
:103AA000852D0E949A2BE82E882329F080914B02C5
:103AB00080FD3DC147C15B8A6C8A8B899C890E94CD
:103AC000C01B292F22952F70243020F49F702230A4
:103AD00028F009C02A50223088F015C0992351F0EF
:103AE000811108C014C0992329F0D80116969C9121
:103AF000907F69F0805E883030F409C0803F38F0F4
:103B0000815F833020F0C8010E94CB03EF2CFE2C94
:103B10001AC18091320381608093320380914B02FD
:103B200081FD10C104C120912C03F801908129135B
:103B300087CF40913303509134032781308542175A
:103B4000530709F07DCFE1107BCF8683D0C0EE20F4
:103B500009F47BCF20913203822F82958F7090E001
:103B60000297BCF080912C0390912D039B878A874C
:103B7000DD86CC86809130038E871F86288B8091CE
:103B80003303909134039A8B898BCE010A960E945D
:103B9000CB0389E0F801ACE2B3E001900D928A9585
:103BA000E1F70E94C42B54CF80913203982F907F6D
:103BB00039F48CE293E00E94CB0389E0D501BFC0C9
:103BC000772009F445CF20912D03F8019181291325
:103BD0001AC020912C039081291315C04091330302
:103BE00050913403278130854217530761F4E11067
:103BF0000AC08683C8010E94CB0389E0D5011D92CB
:103C00008A95E9F7A0C0C8010E94991C882309F48D
:103C10001CCFEE2009F419CF20913203822F829518
:103C20008F7090E002970CF4B4CF80912C039091A8
:103C30002D039A838983DC82CB82809130038D832C
:103C40001E822F8380913303909134039987888754
:103C5000CE0101969CCF0E949A316CE273E00E94E3
:103C6000D12E8816990608F05CC0772009F4F0CEB2
:103C7000FE2CEE2009F4E9CE90912D03F80181810C
:103C8000981341C090912C03808198133CC02091DF
:103C9000330330913403878190852817390799F5CC
:103CA00080912E0390912F03C81AD90AF8ECCF16F1
:103CB000D10400F58091320380FD1CC082958F7085
:103CC000482F50E041155105A9F020913203D80149
:103CD00016962C9316974F30510549F08F5F982F09
:103CE0009295907F822F8F70892B16968C93C801A6
:103CF0000E94CB0389E0F801ACE2B3E001900D92A1
:103D00008A95E1F720C0C8010E94991C811141CF1A
:103D100080913203816080933203C8010E94CB03FB
:103D200012C089E0F50111928A95E9F70CC08CE286
:103D300093E00E94CB03ECE2F3E089E0DF011D9207
:103D40008A95E9F7F12C8F2D6896EFE00C942635D3
:103D500010920D0280910901882331F08091AA010F
:103D600087FF02C08EE101C086E0EFEEF1E0DF01E7
:103D70001D928A95E9F780E090E00E94652280E03C
:103D800090E00E94402210921E030E94212BE2EB41
:103D9000F3E086E0DF011D928A95E9F71092AB030C
:103DA0001092AC031092AD030E94B5300895A2E1C9
:103DB000B0E0EDEDFEE10C9415350A871B872C87EA
:103DC0003D874E875F87688B798B8A8BCE010A96F9
:103DD0000E94AD1C81113BC089E0FE013A96DE01D4
:103DE000119601900D928A95E1F76E85662379F11F
:103DF0002091350330E0C9010196877099274091E1
:103E00007E0350E084179507A1F06D8399E0929F9F
:103E1000D001939FB00D1124AA5CBC4FFE013196D6
:103E200001900D929A95E1F7809335030E94BA2B89
:103E30000EC00E94A81E1092350310927E03ECE281
:103E4000F3E089E0DF011D928A95E9F719C019E0D6
:103E500080917E0390913503891791F0189FC001DE
:103E600011248A5C9C4F0E94AD1C882349F08091EC
:103E70007E0390E001968770992780937E03E8CFB8
:103E80006296E4E00C943135882321F00E94A72A41
:103E90000E94212B0895882339F090911E03892BCD
:103EA00080931E030E94212B0895882321F00E94F5
:103EB000AE2A0E94212B0895882321F00E94B52A62
:103EC0000E94212B0895662309F45CC08D3C21F4E7
:103ED0000E941831819504C08E3C29F40E9418314B
:103EE0008093B503C5C08F3C21F40E9418318195A1
:103EF00004C0803D29F40E9418318093B403B8C0F7
:103F0000893D19F40E94DF3005C08A3D31F40E94DA
:103F1000DF3081958093B603ABC08B3D21F40E94C6
:103F2000DF30819504C08C3D29F40E94DF308093FE
:103F3000B7039EC09FE2980F983078F421E030E0FC
:103F4000A90102C0440F551F9A95E2F7CA0190914A
:103F5000B303892B8093B3038BC08D3D21F48091F3
:103F6000AD0381600CC08E3D21F48091AD03826071
:103F700006C08F3D09F07CC08091AD0384608093C2
:103F8000AD0376C08D3C39F49091B50397FF35C0F1
:103F90001092B50359C08E3C29F49091B5031916BF
:103FA000BCF32BC09091B4038F3C29F497FF25C03C
:103FB0001092B40349C0803D19F41916CCF31DC00A
:103FC0009091B603893D29F41916BCF41092B603FA
:103FD0003BC08A3D19F497FF10C0F8CF8B3D39F4F0
:103FE0009091B70397FF09C01092B7032DC08C3D85
:103FF00021F49091B7031916BCF39FE2980F983003
:1040000080F421E030E0A90102C0440F551F9A95C9
:10401000E2F7CA0180959091B30389238093B3039B
:1040200013C08D3D21F48091AD038E7F0BC08E3D7A
:1040300021F48091AD038D7F05C08F3D29F48091DF
:10404000AD038B7F8093AD038091B403811106C0D3
:104050008091B503811102C01092AB038091B60329
:10406000811106C08091B703811102C01092AC0388
:104070000E94B5300895882399F19CEF980F913AEA
:1040800030F4682F8DEE91E00E94E3210DC090E2A4
:10409000980F983060F4877091E001C0990F8A956D
:1040A000EAF7892F0E94AE2A0E94212B08959BE5F2
:1040B000980F933028F480E090E00E9465220895E4
:1040C00098E5980F9B3128F480E090E00E94402210
:1040D000089593E3980F933118F460E00E94631FF2
:1040E0000895CF93882309F46EC0C82F8CEF8C0FEE
:1040F000813AC0F5809109018823E1F08091AA01FD
:1041000087FF18C0EC2FE695E695E695F0E0E351C1
:10411000FE4F8281282F30E04C2F477081E090E0E5
:1041200002C0880F991F4A95E2F782239323892BB7
:1041300061F412C0EFEEF1E085EF91E02191C2173A
:1041400021F08E179F07D1F707C06C2F8DEE91E0FD
:104150000E94E3210E94212B6C2F8DEE91E00E94A2
:104160000B220CC080E28C0F883058F4C77081E0BD
:1041700001C0880FCA95EAF70E94B52A0E94212B38
:1041800022C0EBE5EC0FE33040F4F0E0E35CFE4FDF
:10419000808190E00E94652216C0E8E5EC0FEB31CB
:1041A00050F4F0E0EE0FFF1FE05CFE4F8081918144
:1041B0000E94402208C083E38C0F833120F461E029
:1041C0008C2F0E94631FCF9108951F93CF93DF938D
:1041D000182F893329F4C0914E02D0914F0204C0A8
:1041E000C0914C02D0914D02812F0E9471202097E6
:1041F00041F08FE99FE00197F1F700C0000021979F
:10420000F6CF812F0E943B20DF91CF911F9108951F
:104210008091AE0108950F931F93CF93DF938B018D
:10422000EA019091D101943079F58F708093E90083
:104230008FEF9091E800815095FD06C095ED9A951D
:10424000F1F700008111F5CF8091E80085FF1CC0D7
:104250000E945E1B882361F08091E8008E77809336
:10426000E80012C0F80181918F018093F10021973D
:10427000209791F38091E80085FDF4CF8091E800CC
:104280008E778093E800E4CFDF91CF911F910F915B
:10429000089581E08093E00080E28093D80010923E
:1042A000C9008FE19EE40197F1F700C0000087E0AC
:1042B00090EBDC018093270590932805A0932905B6
:1042C000B0932A059CE088E10FB6F894A8958093F6
:1042D00060000FBE90936000FFCF78941F920F9202
:1042E0000FB60F9211248F939F93AF93BF9380913A
:1042F000280390912903A0912A03B0912B030196E2
:10430000A11DB11D8093280390932903A0932A0334
:10431000B0932B03BF91AF919F918F910F900FBEE0
:104320000F901F9018959C014FB7F8948091280327
:1043300090912903A0912A03B0912B034FBF821BB8
:10434000930B08952FB7F894609128037091290377
:1043500080912A0390912B032FBF08952FB7F894D3
:104360008091280390912903A0912A03B0912B03F7
:104370002FBF08951F920F920FB60F9211248F93A3
:104380009F93AF93BF9380912703811113C08091B6
:10439000280390912903A0912A03B0912B03419601
:1043A000A11DB11D8093280390932903A0932A0394
:1043B000B0932B03BF91AF919F918F910F900FBE40
:1043C0000F901F901895209109012223C9F0209188
:1043D000AA0127FF15C0262F2695269526952E3152
:1043E000C8F4FC01E20FF11D677081E090E001C0AC
:1043F000880F6A95EAF780959281892382830895D0
:10440000FC0106962281621301C012823196E817E0
:10441000F907C1F70895209109012223C1F02091E5
:10442000AA0127FF14C0262F2695269526952E3102
:1044300030F5FC01E20FF11D677081E090E001C0F2
:10444000880F6A95EAF79281892B82830895FC018F
:1044500032962FEF30E04191641789F02F3F19F425
:10446000411101C0232F3F5F3630A9F72F3F39F0AC
:10447000FC01E20FF11D27FDFA956283089508956E
:10448000A3E0B0E0E6E4F2E20C94173520912503B6
:104490003091260328173907A1F0909326038093C3
:1044A0002503E0912303F0912403309751F024E099
:1044B00029839B838A830680F781E02DCE010196B4
:1044C00009952396E2E00C943335A3E0B0E0EBE6E7
:1044D000F2E20C9417352091210330912203281722
:1044E0003907A1F09093220380932103E0912303E5
:1044F000F0912403309751F023E029839B838A8332
:104500000680F781E02DCE01019609952396E2E021
:104510000C943335E0912303F0912403309729F074
:104520000190F081E02D0995089580E008954115EE
:10453000510511F0FA0109950895CF93DF93EC012D
:104540004A855B856E857F850E9497228B810E94BC
:10455000A72A8C810E94AE2A0E94212B86E0FE01B0
:1045600011928A95E9F7DF91CF910895CF93DF9368
:10457000EC018D8181FD14C082608D8390911E03BA
:104580008B81892B80931E038C810E94B52A0E9407
:10459000212B488559856E857F85CE010E94972203
:1045A0001092200310921F038D8180FD03C0CE0165
:1045B0000E949D22DF91CF910895A0E0B0E0E3EE4C
:1045C000F2E20C940F357C015B01C42FD22FFC0169
:1045D00085818823B1F040931D030E94AE21909302
:1045E0001C0380931B0380E28C0F883008F052C0BC
:1045F000C77081E001C0880FCA95EAF70E945C1F6E
:1046000049C080911D03481335C080911B039091D0
:104610001C030E9493216C01B701C5010E94D12E99
:10462000C816D90638F510E21D0FCD17B9F080E293
:104630008C0F883040F4C77081E001C0880FCA95A4
:10464000EAF70E94551F183010F581E09D2F9770F2
:1046500001C0880F9A95EAF70E945C1F802F0E9484
:10466000E5201830B8F4D77081E001C0880FDA95E2
:10467000EAF70AC080E28C0F883060F4C77081E0EE
:1046800001C0880FCA95EAF70E94551F03C0802F0A
:104690000E94E520CDB7DEB7EAE00C942B35CF932E
:1046A000DF93EC01409110035091110360911203CC
:1046B000709113032FB7F8948091280390912903E8
:1046C000A0912A03B0912B032FBF841B950BA60B3F
:1046D000B70B843F9140A105B105A8F48091100368
:1046E00090911103A0911203B091130380930C03D6
:1046F00090930D03A0930E03B0930F0384EF91E00A
:10470000A0E0B0E00EC00E94A22160930C03709361
:104710000D0380930E0390930F0382E390E0A0E0DB
:10472000B0E08093080390930903A0930A03B09329
:104730000B03D0931803C0931703DF91CF91089513
:10474000FF920F931F93CF93DF9300911903109162
:104750001A030115110509F45CC010921803109298
:1047600017031092140310921503D80116966D9139
:104770007C9117979B013A9521153F4108F4707E73
:10478000C62FD1E0611101C0D0E0F82ED8011996F2
:10479000ED91FC911A97309739F01B966D917C91B1
:1047A0001C9780E00995D823DD2379F08CEF8C0FDE
:1047B000813A30F46C2F8DEE91E00E94E32105C028
:1047C0000E94212B8C2F0E943B20E0911903F09135
:1047D0001A0340815181FF2071F0808584FD0BC058
:1047E00080911603882339F091E09A012150310914
:1047F0002F333E4708F090E090FF03C0CA010E94AB
:104800004F230E94212B10921A0310921903109229
:104810001603C801CDB7DEB7E5E00C943035FC01D6
:1048200084818623C1F492819923B9F0808569231C
:1048300083FF04C081E0611111C00DC0892F8F700A
:1048400092959F70982B862F8F7062956F70682B52
:1048500081E0961719F080E0089581E00895CF93E4
:10486000DF93CDE7D3E060E0CE010E94963421963D
:10487000C11584E0D807B9F7DF91CF91089588304A
:1048800080F49B01982F8AE0989FB0011124635710
:104890007D4F4AE050E0C9010E94683480E090E01A
:1048A00008958FEF9FEF08951F93CF93DF93962F77
:1048B0008630E8F46430D8F44C30C8F4632F122FFB
:1048C000C42FD0E0CC0FDD1F28E1929FC00DD11D79
:1048D000112490E6899FC00DD11D1124CE01899627
:1048E0000E949634612FCE018A960E949634DF9101
:1048F000CF911F910895AEE1B0E0E1E8F4E20C94AD
:104900000B35A0900603B090070381E090E09093F0
:10491000070380930603C12CD12C712CE12CF12CC0
:10492000612C00E010E047018C0C9D1C402F83E0BF
:10493000871558F0F801EE0FFF1FE80DF91DEB5534
:10494000FB4F859194919C0102C021E030E0662DDF
:10495000872D0E9454240F5F1F4F0C30110531F733
:104960006394E8E1EE0EF11CF4E06F12DACF739479
:1049700080E6C80ED11CE6E07E12D0CF0E94C72D83
:104980001A8219821C821B821E821D8218861F8237
:1049900088EC90E09A8789870DE812E04AE050E0C1
:1049A000B801CE0101960E94BA34065F1F4F0D3D3B
:1049B000F2E01F0799F77E018BE0E80EF11C8AE018
:1049C000F70111928A95E9F74AE050E0B801C70172
:1049D0000E94BA34065F1F4F0D32F3E01F07A1F7A4
:1049E0007E0185E1E80EF11C8AE0F70111928A95BB
:1049F000E9F78FEF9FEF9A8F898F87E08E8F4AE0DC
:104A000050E0B801C7010E94BA34065F1F4F0D374E
:104A1000F3E01F07A1F7B0920703A09206036E967A
:104A2000EEE00C9427350F931F93CF93DF938630DE
:104A300008F56430F8F44C30E8F4C42FD0E0CC0F23
:104A4000DD1F28E1629FC00DD11D112430E6839F38
:104A5000C00DD11D1124CE0189960E94783490E0BA
:104A6000182F0027CE018A960E9478349801282BAF
:104A7000C90102C080E090E0DF91CF911F910F91BA
:104A80000895BC014091020380910303942F98176D
:104A900029F1292F30E0F901EE0FFF1FE650FD4FFD
:104AA0000190F081E02DE617F70799F487E0869FE3
:104AB000F001879FF00D1124E75AFD4F81E08483B8
:104AC00094130CC02F5F3F4F2370332720930203B2
:104AD00008952F5F3F4F922F9370D9CF0895EF9293
:104AE000FF920F931F93CF93DF93809191028823BE
:104AF000D9F1C09158028DE0F82E80919102C8172B
:104B000078F5EE24E394EC0EE0925802D0E0FC9E9F
:104B1000F001FD9EF00D1124EE56FD4F8481882397
:104B2000E9F087819085892B21F481859285019612
:104B300059F400811181228133814481558166813C
:104B4000778180850E94D71EFC9EF001FD9EF00DAE
:104B50001124EE56FD4F148210921E03CE2DCDCFA0
:104B60001092910210925802CDB7DEB7E6E00C9495
:104B70002F351092570210925602E9E5F2E0858136
:104B8000811102C014821682379682E0E139F8075B
:104B9000B1F70895109205031092040310920D01CD
:104BA00080910303809302030E94B9250E946F2520
:104BB0000895A0E0B0E0EFEDF5E20C940835C09167
:104BC000020397E0992E01E010E02DE0322E34E050
:104BD000432E5524539480910303C81709F479C0D8
:104BE000D0E0FE01EE0FFF1FE650FD4F8081918166
:104BF000989ED001999EB00D1124A75ABD4F1496CE
:104C00002C911497211162C070909102E2E9F2E0B8
:104C100020E030E0812C5D01271508F055C0E384C9
:104C2000F484D501CD90DC906FEF7FEF612C462DA1
:104C300050E0DA01AA0FBB1FAC0DBD1D0D90BC9159
:104C4000A02D109731F0EA16FB0609F4BA0163941F
:104C5000EECF6F3FBFEF7B0799F1D80102C0AA0FDB
:104C6000BB1F6A95E2F78A2AB801062C02C0660FBC
:104C7000771F0A94E2F7AB0141505109682D70E0AB
:104C800046175707E1F4329EF001339EF00D1124D0
:104C9000EE56FD4F989ED001999EB00D1124A75A53
:104CA000BD4F12962D913C911397308727834482F4
:104CB000108211829287818715965C9205C01482BA
:104CC0002F5F3F4F3D96A8CF0E9441252196C3708C
:104CD00082CF0E946F250E94B925CDB7DEB7E1E1F2
:104CE0000C94243580910C01877F80930C0182E025
:104CF0000E94A72A80910C0184FF06C08F7E8093BA
:104D00000C0182E00E94B52A80910C0185FF06C04B
:104D10008F7D80930C0180E20E94B52A0E94212B96
:104D20000895662329F020911E03226020931E031C
:104D30009C0130522115304308F499270E944534D4
:104D40000895009741F0EFE9FFE03197F1F700C0D7
:104D500000000197F6CF0895A0E0B0E0E2EBF6E2A4
:104D60000C940F355C017B01C42E890180910C01EC
:104D700082FF88C0C0915402D0915502CA15DB054C
:104D800021F0A114B10409F07DC080910C018B7F4A
:104D900080930C0181FD11C08091520290915302C9
:104DA000A701481B590B81E020910A0130910B01AA
:104DB0004217530718F480E001C081E08170D82EBB
:104DC00080910C01D0FA81F980930C01FE01FF273C
:104DD00084E0F695E7958A95E1F79E012F703327D9
:104DE000EE0FFF1FE25FFD4F81E090E002C0880FF1
:104DF000991F2A95E2F7DD2029F020813181822B4D
:104E0000932B06C080959095208131818223932336
:104E10009183808380910D0281FF08C080910C01F5
:104E2000806180930C0182E00E94AE2A80910D0285
:104E300085FF08C080910C01806280930C0180E2A4
:104E40000E94AE2AA8016D2DCE010E949126CC2091
:104E500031F08091490285FF02C086FF2BC080910E
:104E60004C0290914D020E94A12680915402909193
:104E700055029C0130522115304308F499270E94B5
:104E80002B3412C0C50190528115904318F4C5010E
:104E9000992701C0C5010E942B3480915402909142
:104EA0005502A816B90611F40E947226F092530218
:104EB000E0925202CDB7DEB7EAE00C942B3580E0E9
:104EC00008959091AA0192FF10C041E0282F24710B
:104ED000243009F040E031E0282F2871283009F013
:104EE00030E0431711F02CE0822793FF10C041E01F
:104EF000282F2471243109F040E031E0282F287157
:104F0000283109F030E0431711F02CE0822730916E
:104F1000AB0130FF10C051E0282F2171213009F082
:104F200050E041E0282F2871283009F040E0541764
:104F300011F029E0822731FF10C041E0282F2171B4
:104F4000213109F040E031E0282F2871283109F0A3
:104F500030E0431711F029E0822794FD877E089501
:104F60008238910569F1B0F48133910509F475C077
:104F700048F48932910509F467C08A32910509F431
:104F800071C008958533910509F459C0893391059D
:104F9000B9F00895833E910589F138F4803E91057A
:104FA000D1F0823E910529F10895863E9105C9F11F
:104FB000873E9105D9F1843E910509F06CC027C068
:104FC0002091AA0120FD57C021FD55C02091AB01C1
:104FD00023FD5BC008958091AA0180FD48C08091A7
:104FE000AB0180FF48C08091AA0184FD46C083EEDA
:104FF00051C08091AA0182FF3CC0F5CF8091AA01E7
:1050000082FD37C08091AB0180FD35C0ECCF80912F
:10501000AB0181FF36C08091AA0184FD2EC087EECE
:1050200039C08091AA0183FF2AC0F5CF8091AA01DF
:1050300083FD25C08091AB0181FD23C0ECCF809121
:10504000AA0185FD22C01FC08091AA0185FD1BC059
:105050008091AB0183FF19C00AC08091AA0186FD2F
:1050600016C017C08091AA0186FD13C010C089E345
:1050700011C082EE0FC080EE0DC080E00BC086EE46
:1050800009C084EE07C085E305C089E203C08AE257
:1050900001C081E390E00895F894E82FE295EF7065
:1050A000F0E031A1282F2F7081E090E001C0880F3F
:1050B0002A95EAF7982F9095932391A392A1892B93
:1050C00082A378940895A8E0B0E0E9E6F8E20C94B1
:1050D0000B35AE014F5F5F4F7A0188E0FA01119204
:1050E0008A95E9F70EE111E06A0192E2692E91E0FA
:1050F000792E88248394912CF80180818F3F09F4C4
:1051000047C0F894E82FE295EF70F0E021A18F708E
:10511000A40102C0440F551F8A95E2F7CA01922FDD
:10512000982B91A392A18095892382A3789400C0A3
:10513000E2E2F1E021E030E0A12CB12C41914F3FBF
:1051400089F0A42FA295AF70B0E090968C9190E07A
:105150004F7002C0959587954A95E2F780FD02C091
:10516000C90102C080E090E0A82AB92A220F331FAB
:1051700051E0EE32F50711F7F80180818F3F11F011
:105180000E944C28F0EAFA95F1F7F601B182A0826C
:105190000F5F1F4FF2E0CF0ED11C6016710609F0B1
:1051A000ABCF48E050E0B7018DE791E00E943E357B
:1051B000892B89F088E0F701ADE7B1E001900D920D
:1051C0008A95E1F781E08093AA030E94AE21909333
:1051D000A9038093A8038091AA03811102C080E0F3
:1051E00020C08091A8039091A9030E949321059764
:1051F000B0F348E050E06DE771E080EA91E00E9492
:105200003E35892B59F088E0EDE7F1E0A0EAB1E006
:1052100001900D928A95E1F781E001C080E0109243
:10522000AA032896EEE00C9427352091A80130912E
:10523000A901232BA1F4703F39F4603F81F48091E0
:10524000B8039091B9030895743048F46C3038F481
:10525000863028F4462F672F0E941325089580E09A
:1052600090E008951F93CF93DF930E94B027EC0145
:10527000C11580E5D807E8F5C11590E4D90708F015
:10528000A8C0C03ED10530F5CD3CD10508F094C092
:10529000C83AD10578F4C53AD10508F083C0C130C9
:1052A000D10509F47CC008F4F2C0C430D10508F07F
:1052B000F1C0EDC0C33CD10508F0E9C0C85AD0E048
:1052C000CC0FDD1FC05CDE4F0990D881C02DCE0110
:1052D0009464E1C0C11580E2D80708F0CBC0C115C5
:1052E00091E0D90708F06BC0C83ED10508F4D2C0E0
:1052F000CEC0C03682E5D80728F5C03492E5D9077C
:1053000008F079C0C03282E5D80708F06CC0C1153A
:1053100092E5D90708F481C04C2F4695469580E266
:10532000489FA0011124C37021E030E0C90102C0F0
:10533000880F991FCA95E2F7EA01C82BD92BCE0135
:105340009D68A9C0C03A82E5D807B8F48C2F8F7148
:10535000C03892E5D90708F07BC08695869590E223
:10536000899F90011124C37081E090E002C0880FF2
:10537000991FCA95E2F79A6868C0C03C82E5D807D1
:1053800008F46DC0C03E92E5D90708F080C0CF7127
:10539000DD27DC2FCC27CE01806F906A7CC081E0B6
:1053A00090E079C0C55AD0E0C35CDE4F8881C82F39
:1053B000D0E0CE0190646FC0CE0190656CC08D2F9F
:1053C0000E946127182FCE0199270E94B0271F71D4
:1053D0005CC0CE0199270E94B027CC27DF70D06A2D
:1053E0008C2B9D2B58C0CF71D0E0DC2FCC27CE0169
:1053F000816F906A50C08C2F8F718695869590E250
:10540000899F90011124C37081E090E002C0880F51
:10541000991FCA95E2F79C6818C08C2F8F710E9463
:10542000612795E0D695C7959A95E1F7CF70D0E0C2
:10543000DC2FCC27282F30E084FF05C084E0220F2A
:10544000331F8A95E1F7D069CE01822B932B23C0BD
:1054500090E0D82FCC27CE01846F906A1CC08C2F8F
:105460008F710E9461278F7190E0D82FCC27CE01D9
:10547000906211C08D2F8F710E946127182FCE016D
:1054800099270E94B0271F719062912B04C080E081
:1054900090E001C0CE01DF91CF911F910895A6E069
:1054A000B0E0E5E5FAE20C9415350E94AE218C01DE
:1054B0008091A6039091A7030817190781F019821C
:1054C0001A820E94AE21682F49815A81792F80E08B
:1054D00090E00E94A9311093A7030093A60326969B
:1054E000E4E00C9431358091A503882331F01092CB
:1054F000A5031092A4031092A3030895CF93909153
:10550000AB0192FF0DC09091A503981749F0C82FE9
:105510000E94AE219093A4038093A303C093A5039C
:10552000CF9108959091A503292F282379F0809594
:1055300089238093A503882319F00E94AE2102C01D
:1055400080E090E09093A4038093A3030895809556
:1055500090911E03892380931E0308958095909156
:105560000D02892380930D02089590910D02892BDD
:1055700080930D020895109282031092810310927D
:1055800080030895909182038095892380938203FC
:10559000282F277069F4981759F09091AB0192FF6A
:1055A00007C08695869586950E94621C0E94BB2A3C
:1055B00008959091AB0192FB222720F9281779F0EA
:1055C00080FB92F99093AB016091AA017091AB01BD
:1055D00084E090E00E94B43482E00E94C22A0895E0
:1055E0009091AB0192FF10C098E0899F9001112427
:1055F000262B209382030E946F1C0E94AE21909361
:1056000081038093800308950E946F1C0895809108
:10561000300290913102892B89F00E94AE212091B5
:10562000A3033091A403AC01421B530B81E02091F2
:105630003002309131024217530708F480E0817044
:105640000895CF9390910D0280911E03892B809332
:10565000ED018091A503882351F180913002909152
:105660003102892B29F00E94072B81110E94732A95
:105670009091ED018091A503892B8093ED0180919C
:105680000901882331F08091AA0187FF02C08EE1D1
:1056900001C086E0EFEEF1E090E0815028F021912A
:1056A0002223D9F39F5FF9CF91110E94732AC091F1
:1056B0001403C0958091ED01C82380911503C82B78
:1056C000C093ED0140E250E063E873E08DEE91E0BD
:1056D0000E943E35892B11F180E2EDEEF1E0A3E866
:1056E000B3E001900D928A95E1F7E0912303F091E8
:1056F0002403309799F080910901882349F0809123
:10570000AA0187FF05C0C093EE0186E08093ED01FA
:105710000280F381E02D8DEE91E00995CF910895FF
:1057200090917F03292F282321F08095982390932F
:105730007F03089520917E039091350359E0291746
:10574000A9F030E0529FF001539FF00D1124EA5C64
:10575000FC4F7181761306C07081781303C0758188
:10576000741306C02F5F3F4F2770E9CF80E0089584
:1057700081E0089580917E0390913503891719F097
:105780008F5F8770FBCF0895A0E0B0E0EAECFBE20A
:105790000C9412358091320382958F7009F052C0BB
:1057A00080913103882309F44DC0C0917E0389E0C4
:1057B000D82E80913503C81709F444C0D0E0DC9E90
:1057C0008001DD9E100D1124F801EA5CFC4F8481FC
:1057D0008823A9F1918180912D03981330C0908185
:1057E00080912C0398132BC08581811128C0E28001
:1057F000F38080912E0390912F03E81AF90A60E05C
:105800008CE293E00E949A316CE273E00E94D12E08
:10581000E816F906A0F4809132038F7080618093BE
:105820003203F801E45CFC4F80818F7080618083DB
:105830008CE293E00E94CB030E94BA2B03C0219616
:10584000C770B7CFCDB7DEB7E7E00C942E35A0E038
:10585000B0E0EDE2FCE20C940F354430510508F461
:105860006CC04091AA0141FBCC24C0F8D12CCC0CD7
:10587000DD1C42FB882780F9C82FE0E0DE2FCC0F2B
:10588000DD1FCC0FDD1FCC2ADD2A40FBEE24E0F823
:10589000F12CEC28FD2843FBAA27A0F9B0E023E077
:1058A000AA0FBB1F2A95E1F7EA2AFB2A44FBEE2741
:1058B000E0F9F0E034E0EE0FFF1F3A95E1F7EE2952
:1058C000FF2945FB222720F930E055E0220F331F46
:1058D0005A95E1F72E2B3F2B46FB882780F990E065
:1058E000E6E0880F991FEA95E1F7822B932B47FB9F
:1058F000442740F950E05695542F44275795479533
:10590000842B952B2091AB01322F3170132F00E0A7
:10591000082B192B26952170B22EBB0CA12C0A291D
:105920001B29012E000C220B330BFB01008311837A
:105930002283338380E090E002C08FEF9FEFCDB7EA
:10594000DEB7EAE00C942B35EEE2F2E0848195813B
:105950002AE030E0B9010E94D234609315018681BB
:1059600080931401828580931301848580931201B2
:1059700086859785B9010E94D23460931101808990
:1059800080931001828980930F01848980930E0196
:10599000089580912E0290912F0290930B01809395
:1059A0000A010895CF92DF92EF92FF9244305105A1
:1059B00008F471C0FB01C080D180E280F3800E94B6
:1059C000A81E8091AA01C0FA80F9B701A6017695B8
:1059D00067955795479540FB81F9B701A60122E0ED
:1059E00076956795579547952A95D1F740FB82F9AB
:1059F000B701A60133E076956795579547953A9597
:105A0000D1F740FB83F9B701A601E4E076956795ED
:105A100057954795EA95D1F740FB84F9B701A60160
:105A2000F5E07695679557954795FA95D1F740FB40
:105A300085F9B701A601A6E0769567955795479534
:105A4000AA95D1F740FB86F9B701A601B7E0769594
:105A5000679557954795BA95D1F740FB87F980939D
:105A6000AA018091AB01D0FA80F999E0F694E7940D
:105A7000D794C7949A95D1F7C0FA81F98093AB0176
:105A80006091AA017091AB0184E090E00E94B4346F
:105A900080E090E002C08FEF9FEFFF90EF90DF90EB
:105AA000CF9008959C01CA01F90132964591549115
:105AB0008417950750F0CB01F901349665917491E4
:105AC0000E944B3580E090E008958FEF9FEF08959E
:105AD0000F931F93CF93DF930EE212E0C9E6D2E05B
